{
  "abi": [
    {
      "inputs": [
        {
          "internalType": "string",
          "name": "_name",
          "type": "string"
        },
        {
          "internalType": "string",
          "name": "_symbol",
          "type": "string"
        }
      ],
      "stateMutability": "nonpayable",
      "type": "constructor"
    },
    {
      "inputs": [
        {
          "internalType": "address",
          "name": "",
          "type": "address"
        }
      ],
      "name": "balances",
      "outputs": [
        {
          "internalType": "uint256",
          "name": "",
          "type": "uint256"
        }
      ],
      "stateMutability": "view",
      "type": "function"
    },
    {
      "inputs": [
        {
          "internalType": "address",
          "name": "to",
          "type": "address"
        }
      ],
      "name": "mint",
      "outputs": [],
      "stateMutability": "nonpayable",
      "type": "function"
    },
    {
      "inputs": [],
      "name": "name",
      "outputs": [
        {
          "internalType": "string",
          "name": "",
          "type": "string"
        }
      ],
      "stateMutability": "view",
      "type": "function"
    },
    {
      "inputs": [],
      "name": "nextTokenId",
      "outputs": [
        {
          "internalType": "uint256",
          "name": "",
          "type": "uint256"
        }
      ],
      "stateMutability": "view",
      "type": "function"
    },
    {
      "inputs": [
        {
          "internalType": "uint256",
          "name": "",
          "type": "uint256"
        }
      ],
      "name": "owners",
      "outputs": [
        {
          "internalType": "address",
          "name": "",
          "type": "address"
        }
      ],
      "stateMutability": "view",
      "type": "function"
    },
    {
      "inputs": [],
      "name": "symbol",
      "outputs": [
        {
          "internalType": "string",
          "name": "",
          "type": "string"
        }
      ],
      "stateMutability": "view",
      "type": "function"
    }
  ],
  "bytecode": {
    "object": "0x608060405234801561000f575f5ffd5b50604051610b73380380610b73833981810160405281019061003191906101be565b815f908161003f9190610455565b50806001908161004f9190610455565b505050610524565b5f604051905090565b5f5ffd5b5f5ffd5b5f5ffd5b5f5ffd5b5f601f19601f8301169050919050565b7f4e487b71000000000000000000000000000000000000000000000000000000005f52604160045260245ffd5b6100b682610070565b810181811067ffffffffffffffff821117156100d5576100d4610080565b5b80604052505050565b5f6100e7610057565b90506100f382826100ad565b919050565b5f67ffffffffffffffff82111561011257610111610080565b5b61011b82610070565b9050602081019050919050565b5f5b8381101561014557808201518184015260208101905061012a565b5f8484015250505050565b5f61016261015d846100f8565b6100de565b90508281526020810184848401111561017e5761017d61006c565b5b610189848285610128565b509392505050565b5f82601f8301126101a5576101a4610068565b5b81516101b5848260208601610150565b91505092915050565b5f5f604083850312156101d4576101d3610060565b5b5f83015167ffffffffffffffff8111156101f1576101f0610064565b5b6101fd85828601610191565b925050602083015167ffffffffffffffff81111561021e5761021d610064565b5b61022a85828601610191565b9150509250929050565b5f81519050919050565b7f4e487b71000000000000000000000000000000000000000000000000000000005f52602260045260245ffd5b5f600282049050600182168061028257607f821691505b6020821081036102955761029461023e565b5b50919050565b5f819050815f5260205f209050919050565b5f6020601f8301049050919050565b5f82821b905092915050565b5f600883026102f77fffffffffffffffffffffffffffffffffffffffffffffffffffffffffffffffff826102bc565b61030186836102bc565b95508019841693508086168417925050509392505050565b5f819050919050565b5f819050919050565b5f61034561034061033b84610319565b610322565b610319565b9050919050565b5f819050919050565b61035e8361032b565b61037261036a8261034c565b8484546102c8565b825550505050565b5f5f905090565b61038961037a565b610394818484610355565b505050565b5f5b828110156103ba576103af5f828401610381565b60018101905061039b565b505050565b601f82111561040d578282111561040c576103d98161029b565b6103e2836102ad565b6103eb856102ad565b60208610156103f8575f90505b80830161040782840382610399565b505050505b5b505050565b5f82821c905092915050565b5f61042d5f1984600802610412565b1980831691505092915050565b5f610445838361041e565b9150826002028217905092915050565b61045e82610234565b67ffffffffffffffff81111561047757610476610080565b5b610481825461026b565b61048c8282856103bf565b5f60209050601f8311600181146104bd575f84156104ab578287015190505b6104b5858261043a565b86555061051c565b601f1984166104cb8661029b565b5f5b828110156104f2578489015182556001820191506020850194506020810190506104cd565b8683101561050f578489015161050b601f89168261041e565b8355505b6001600288020188555050505b505050505050565b610642806105315f395ff3fe608060405234801561000f575f5ffd5b5060043610610060575f3560e01c8063025e7c271461006457806306fdde031461009457806327e235e3146100b25780636a627842146100e257806375794a3c146100fe57806395d89b411461011c575b5f5ffd5b61007e60048036038101906100799190610391565b61013a565b60405161008b91906103fb565b60405180910390f35b61009c61016a565b6040516100a9919061049e565b60405180910390f35b6100cc60048036038101906100c791906104e8565b6101f5565b6040516100d99190610522565b60405180910390f35b6100fc60048036038101906100f791906104e8565b61020a565b005b6101066102c8565b6040516101139190610522565b60405180910390f35b6101246102ce565b604051610131919061049e565b60405180910390f35b6003602052805f5260405f205f915054906101000a900473ffffffffffffffffffffffffffffffffffffffff1681565b5f805461017690610568565b80601f01602080910402602001604051908101604052809291908181526020018280546101a290610568565b80156101ed5780601f106101c4576101008083540402835291602001916101ed565b820191905f5260205f20905b8154815290600101906020018083116101d057829003601f168201915b505050505081565b6004602052805f5260405f205f915090505481565b5f60025f81548092919061021d906105c5565b9190505590508160035f8381526020019081526020015f205f6101000a81548173ffffffffffffffffffffffffffffffffffffffff021916908373ffffffffffffffffffffffffffffffffffffffff16021790555060045f8373ffffffffffffffffffffffffffffffffffffffff1673ffffffffffffffffffffffffffffffffffffffff1681526020019081526020015f205f8154809291906102bf906105c5565b91905055505050565b60025481565b600180546102db90610568565b80601f016020809104026020016040519081016040528092919081815260200182805461030790610568565b80156103525780601f1061032957610100808354040283529160200191610352565b820191905f5260205f20905b81548152906001019060200180831161033557829003601f168201915b505050505081565b5f5ffd5b5f819050919050565b6103708161035e565b811461037a575f5ffd5b50565b5f8135905061038b81610367565b92915050565b5f602082840312156103a6576103a561035a565b5b5f6103b38482850161037d565b91505092915050565b5f73ffffffffffffffffffffffffffffffffffffffff82169050919050565b5f6103e5826103bc565b9050919050565b6103f5816103db565b82525050565b5f60208201905061040e5f8301846103ec565b92915050565b5f81519050919050565b5f82825260208201905092915050565b5f5b8381101561044b578082015181840152602081019050610430565b5f8484015250505050565b5f601f19601f8301169050919050565b5f61047082610414565b61047a818561041e565b935061048a81856020860161042e565b61049381610456565b840191505092915050565b5f6020820190508181035f8301526104b68184610466565b905092915050565b6104c7816103db565b81146104d1575f5ffd5b50565b5f813590506104e2816104be565b92915050565b5f602082840312156104fd576104fc61035a565b5b5f61050a848285016104d4565b91505092915050565b61051c8161035e565b82525050565b5f6020820190506105355f830184610513565b92915050565b7f4e487b71000000000000000000000000000000000000000000000000000000005f52602260045260245ffd5b5f600282049050600182168061057f57607f821691505b6020821081036105925761059161053b565b5b50919050565b7f4e487b71000000000000000000000000000000000000000000000000000000005f52601160045260245ffd5b5f6105cf8261035e565b91507fffffffffffffffffffffffffffffffffffffffffffffffffffffffffffffffff820361060157610600610598565b5b60018201905091905056fea2646970667358221220a10aff5aa325f21d9bae48d3bc88f60be92f86450a95b983c2ae709e65e2704964736f6c63430008210033",
    "linkReferences": {}
  },
  "methodIdentifiers": {
    "balances(address)": "27e235e3",
    "mint(address)": "6a627842",
    "name()": "06fdde03",
    "nextTokenId()": "75794a3c",
    "owners(uint256)": "025e7c27",
    "symbol()": "95d89b41"
  },
  "id": 0
}