{
  "abi": [
    {
      "inputs": [],
      "name": "count",
      "outputs": [
        {
          "internalType": "uint256",
          "name": "",
          "type": "uint256"
        }
      ],
      "stateMutability": "view",
      "type": "function"
    },
    {
      "inputs": [],
      "name": "increment",
      "outputs": [],
      "stateMutability": "nonpayable",
      "type": "function"
    },
    {
      "inputs": [
        {
          "internalType": "uint256",
          "name": "_count",
          "type": "uint256"
        }
      ],
      "name": "setCount",
      "outputs": [],
      "stateMutability": "nonpayable",
      "type": "function"
    }
  ],
  "bytecode": {
    "object": "0x6080604052348015600e575f5ffd5b506101cf8061001c5f395ff3fe608060405234801561000f575f5ffd5b506004361061003f575f3560e01c806306661abd14610043578063d09de08a14610061578063d14e62b81461006b575b5f5ffd5b61004b610087565b60405161005891906100c7565b60405180910390f35b61006961008c565b005b6100856004803603810190610080919061010e565b6100a6565b005b5f5481565b60015f5f82825461009d9190610166565b92505081905550565b805f8190555050565b5f819050919050565b6100c1816100af565b82525050565b5f6020820190506100da5f8301846100b8565b92915050565b5f5ffd5b6100ed816100af565b81146100f7575f5ffd5b50565b5f81359050610108816100e4565b92915050565b5f60208284031215610123576101226100e0565b5b5f610130848285016100fa565b91505092915050565b7f4e487b71000000000000000000000000000000000000000000000000000000005f52601160045260245ffd5b5f610170826100af565b915061017b836100af565b925082820190508082111561019357610192610139565b5b9291505056fea2646970667358221220de908cb72df640da51425b08c3d24498aa1d4ee11f11ac8cf63d81d82dffb0c564736f6c63430008210033",
    "linkReferences": {}
  },
  "methodIdentifiers": {
    "count()": "06661abd",
    "increment()": "d09de08a",
    "setCount(uint256)": "d14e62b8"
  },
  "id": 0
}